{
  "contractName": "TodoList",
  "abi": [
    {
      "constant": true,
      "inputs": [
        {
          "name": "",
          "type": "uint256"
        }
      ],
      "name": "tasks",
      "outputs": [
        {
          "name": "id",
          "type": "uint256"
        },
        {
          "name": "content",
          "type": "string"
        },
        {
          "name": "completed",
          "type": "bool"
        },
        {
          "name": "deleted",
          "type": "bool"
        }
      ],
      "payable": false,
      "stateMutability": "view",
      "type": "function",
      "signature": "0x8d977672"
    },
    {
      "constant": true,
      "inputs": [],
      "name": "taskCount",
      "outputs": [
        {
          "name": "",
          "type": "uint256"
        }
      ],
      "payable": false,
      "stateMutability": "view",
      "type": "function",
      "signature": "0xb6cb58a5"
    },
    {
      "inputs": [],
      "payable": false,
      "stateMutability": "nonpayable",
      "type": "constructor",
      "signature": "constructor"
    },
    {
      "anonymous": false,
      "inputs": [
        {
          "indexed": false,
          "name": "id",
          "type": "uint256"
        },
        {
          "indexed": false,
          "name": "content",
          "type": "string"
        },
        {
          "indexed": false,
          "name": "completed",
          "type": "bool"
        },
        {
          "indexed": false,
          "name": "deleted",
          "type": "bool"
        }
      ],
      "name": "TaskCreated",
      "type": "event",
      "signature": "0xd3b5ebbcee14df18f4cab0dc4d660788f6a8d81c06f14b96a8942de3e730f518"
    },
    {
      "anonymous": false,
      "inputs": [
        {
          "indexed": false,
          "name": "id",
          "type": "uint256"
        },
        {
          "indexed": false,
          "name": "completed",
          "type": "bool"
        }
      ],
      "name": "TaskCompleted",
      "type": "event",
      "signature": "0xe21fa966ca5cd02748c0752352d18c48165e61cb55b4c29cccf924b5a95fcff1"
    },
    {
      "anonymous": false,
      "inputs": [
        {
          "indexed": false,
          "name": "id",
          "type": "uint256"
        },
        {
          "indexed": false,
          "name": "deleted",
          "type": "bool"
        }
      ],
      "name": "TaskDeleted",
      "type": "event",
      "signature": "0x572597a6891de3ffc5ddb25adeb4871a3bf451676410ca50eed9524c49bdc0e6"
    },
    {
      "constant": false,
      "inputs": [
        {
          "name": "_content",
          "type": "string"
        }
      ],
      "name": "createTask",
      "outputs": [],
      "payable": false,
      "stateMutability": "nonpayable",
      "type": "function",
      "signature": "0x111002aa"
    },
    {
      "constant": false,
      "inputs": [
        {
          "name": "_id",
          "type": "uint256"
        }
      ],
      "name": "toggleCompleted",
      "outputs": [],
      "payable": false,
      "stateMutability": "nonpayable",
      "type": "function",
      "signature": "0x455f5024"
    },
    {
      "constant": false,
      "inputs": [
        {
          "name": "_id",
          "type": "uint256"
        }
      ],
      "name": "deleteTask",
      "outputs": [],
      "payable": false,
      "stateMutability": "nonpayable",
      "type": "function",
      "signature": "0x560f3192"
    }
  ],
  "bytecode": "0x60806040526000805534801561001457600080fd5b5060408051808201909152600881527f42757920666f6f64000000000000000000000000000000000000000000000000602082015261005b90640100000000610060810204565b610241565b6000805460019081018083556040805160808101825282815260208082018781528284018790526060830187905293865284815291909420845181559151805192936100b4939085019291909101906101a6565b506040828101516002909201805460609485015115156101000261ff001994151560ff199092169190911793909316929092179091556000805482518181529283018290529282018190526080602080840182815286519285019290925285517fd3b5ebbcee14df18f4cab0dc4d660788f6a8d81c06f14b96a8942de3e730f518959487949384939192909160a084019190870190808383885b8381101561016657818101518382015260200161014e565b50505050905090810190601f1680156101935780820380516001836020036101000a031916815260200191505b509550505050505060405180910390a150565b828054600181600116156101000203166002900490600052602060002090601f016020900481019282601f106101e757805160ff1916838001178555610214565b82800160010185558215610214579182015b828111156102145782518255916020019190600101906101f9565b50610220929150610224565b5090565b61023e91905b80821115610220576000815560010161022a565b90565b61086e806102506000396000f3fe60806040526004361061006c5763ffffffff7c0100000000000000000000000000000000000000000000000000000000600035041663111002aa8114610071578063455f502414610126578063560f3192146101505780638d9776721461017a578063b6cb58a514610236575b600080fd5b34801561007d57600080fd5b506101246004803603602081101561009457600080fd5b8101906020810181356401000000008111156100af57600080fd5b8201836020820111156100c157600080fd5b803590602001918460018302840111640100000000831117156100e357600080fd5b91908080601f01602080910402602001604051908101604052809392919081815260200183838082843760009201919091525092955061025d945050505050565b005b34801561013257600080fd5b506101246004803603602081101561014957600080fd5b50356103a3565b34801561015c57600080fd5b506101246004803603602081101561017357600080fd5b503561052f565b34801561018657600080fd5b506101a46004803603602081101561019d57600080fd5b50356106bc565b6040805185815283151591810191909152811515606082015260806020808301828152865192840192909252855160a084019187019080838360005b838110156101f85781810151838201526020016101e0565b50505050905090810190601f1680156102255780820380516001836020036101000a031916815260200191505b509550505050505060405180910390f35b34801561024257600080fd5b5061024b610774565b60408051918252519081900360200190f35b6000805460019081018083556040805160808101825282815260208082018781528284018790526060830187905293865284815291909420845181559151805192936102b19390850192919091019061077a565b506040828101516002909201805460609485015115156101000261ff001994151560ff199092169190911793909316929092179091556000805482518181529283018290529282018190526080602080840182815286519285019290925285517fd3b5ebbcee14df18f4cab0dc4d660788f6a8d81c06f14b96a8942de3e730f518959487949384939192909160a084019190870190808383885b8381101561036357818101518382015260200161034b565b50505050905090810190601f1680156103905780820380516001836020036101000a031916815260200191505b509550505050505060405180910390a150565b6103ab6107f8565b60008281526001602081815260409283902083516080810185528154815281840180548651600296821615610100026000190190911695909504601f810185900485028601850190965285855290949193858401939092908301828280156104545780601f1061042957610100808354040283529160200191610454565b820191906000526020600020905b81548152906001019060200180831161043757829003601f168201915b50505091835250506002919091015460ff808216151560208085019190915261010090920416151560409283015282820180511590526000858152600180835292902083518155838201518051949550859491936104b8939085019291019061077a565b506040828101516002909201805460609094015115156101000261ff001993151560ff199095169490941792909216929092179055818101518151848152901515602082015281517fe21fa966ca5cd02748c0752352d18c48165e61cb55b4c29cccf924b5a95fcff1929181900390910190a15050565b6105376107f8565b60008281526001602081815260409283902083516080810185528154815281840180548651600296821615610100026000190190911695909504601f810185900485028601850190965285855290949193858401939092908301828280156105e05780601f106105b5576101008083540402835291602001916105e0565b820191906000526020600020905b8154815290600101906020018083116105c357829003601f168201915b50505091835250506002919091015460ff80821615156020808501919091526101009092041615156040928301526001606084018190526000868152818352929092208351815583820151805194955085949193610644939085019291019061077a565b506040828101516002909201805460609485015115156101000261ff001994151560ff19909216919091179390931692909217909155908201518151848152901515602082015281517f572597a6891de3ffc5ddb25adeb4871a3bf451676410ca50eed9524c49bdc0e6929181900390910190a15050565b600160208181526000928352604092839020805481840180548651600296821615610100026000190190911695909504601f810185900485028601850190965285855290949193929091908301828280156107585780601f1061072d57610100808354040283529160200191610758565b820191906000526020600020905b81548152906001019060200180831161073b57829003601f168201915b5050506002909301549192505060ff8082169161010090041684565b60005481565b828054600181600116156101000203166002900490600052602060002090601f016020900481019282601f106107bb57805160ff19168380011785556107e8565b828001600101855582156107e8579182015b828111156107e85782518255916020019190600101906107cd565b506107f4929150610825565b5090565b60806040519081016040528060008152602001606081526020016000151581526020016000151581525090565b61083f91905b808211156107f4576000815560010161082b565b9056fea165627a7a723058204cf41dfd09a7a24f63e6b94b7cf30905b272618fb20caf5a1797e3cdfabb03cd0029",
  "source": "pragma solidity ^0.5.0;\n\ncontract TodoList {\n  uint public taskCount = 0;\n\n  struct Task {\n    uint id;\n    string content;\n    bool completed;\n    bool deleted;\n  }\n\n  event TaskCreated(\n    uint id,\n    string content,\n    bool completed,\n    bool deleted\n  );\n\n  event TaskCompleted(\n    uint id,\n    bool completed\n  );\n\n  event TaskDeleted(\n    uint id,\n    bool deleted\n  );\n\n  mapping(uint => Task) public tasks;\n\n  constructor() public {\n    createTask(\"Buy food\");\n  }\n\n  function createTask(string memory _content) public {\n    taskCount++;\n    tasks[taskCount] = Task(taskCount, _content, false, false);\n    emit TaskCreated(taskCount, _content, false, false);\n  }\n\n  function toggleCompleted(uint _id) public {\n    Task memory _task = tasks[_id];\n    _task.completed = !_task.completed;\n    tasks[_id] = _task;\n    emit TaskCompleted(_id, _task.completed);\n  }\n\n  function deleteTask(uint _id) public {\n    Task memory _task = tasks[_id];\n    _task.deleted = true;\n    tasks[_id] = _task;\n    emit TaskDeleted(_id, _task.deleted);\n  }\n\n}",
  "sourcePath": "/Users/sirqo/Documents/blockchain/todolist/contracts/TodoList.sol",
  "compiler": {
    "name": "solc",
    "version": "0.5.0+commit.1d4f565a.Emscripten.clang"
  },
  "schemaVersion": "3.0.1",
  "updatedAt": "2021-08-15T08:17:12.064Z",
  "devdoc": {
    "methods": {}
  },
  "userdoc": {
    "methods": {}
  }
}